{
  "contractName": "DappToken",
  "abi": [
    {
      "inputs": [
        {
          "internalType": "uint256",
          "name": "_initialSupply",
          "type": "uint256"
        }
      ],
      "stateMutability": "nonpayable",
      "type": "constructor"
    },
    {
      "anonymous": false,
      "inputs": [
        {
          "indexed": true,
          "internalType": "address",
          "name": "_from",
          "type": "address"
        },
        {
          "indexed": true,
          "internalType": "address",
          "name": "_to",
          "type": "address"
        },
        {
          "indexed": false,
          "internalType": "uint256",
          "name": "_value",
          "type": "uint256"
        }
      ],
      "name": "Transfer",
      "type": "event"
    },
    {
      "inputs": [
        {
          "internalType": "address",
          "name": "",
          "type": "address"
        }
      ],
      "name": "balanceOf",
      "outputs": [
        {
          "internalType": "uint256",
          "name": "",
          "type": "uint256"
        }
      ],
      "stateMutability": "view",
      "type": "function"
    },
    {
      "inputs": [],
      "name": "name",
      "outputs": [
        {
          "internalType": "string",
          "name": "",
          "type": "string"
        }
      ],
      "stateMutability": "view",
      "type": "function"
    },
    {
      "inputs": [],
      "name": "standard",
      "outputs": [
        {
          "internalType": "string",
          "name": "",
          "type": "string"
        }
      ],
      "stateMutability": "view",
      "type": "function"
    },
    {
      "inputs": [],
      "name": "symbol",
      "outputs": [
        {
          "internalType": "string",
          "name": "",
          "type": "string"
        }
      ],
      "stateMutability": "view",
      "type": "function"
    },
    {
      "inputs": [],
      "name": "totalSupply",
      "outputs": [
        {
          "internalType": "uint256",
          "name": "",
          "type": "uint256"
        }
      ],
      "stateMutability": "view",
      "type": "function"
    },
    {
      "inputs": [
        {
          "internalType": "address",
          "name": "_to",
          "type": "address"
        },
        {
          "internalType": "uint256",
          "name": "_value",
          "type": "uint256"
        }
      ],
      "name": "transfer",
      "outputs": [
        {
          "internalType": "bool",
          "name": "success",
          "type": "bool"
        }
      ],
      "stateMutability": "nonpayable",
      "type": "function"
    },
    {
      "inputs": [
        {
          "internalType": "address",
          "name": "_spender",
          "type": "address"
        },
        {
          "internalType": "uint256",
          "name": "_value",
          "type": "uint256"
        }
      ],
      "name": "approve",
      "outputs": [
        {
          "internalType": "bool",
          "name": "success",
          "type": "bool"
        }
      ],
      "stateMutability": "nonpayable",
      "type": "function"
    }
  ],
  "bytecode": "0x60806040526040518060400160405280600a81526020017f4461707020546f6b656e00000000000000000000000000000000000000000000815250600090805190602001906200005192919062000173565b506040518060400160405280600481526020017f4441505000000000000000000000000000000000000000000000000000000000815250600190805190602001906200009f92919062000173565b506040518060400160405280600f81526020017f4441707020546f6b656e2076312e30000000000000000000000000000000000081525060029080519060200190620000ed92919062000173565b50348015620000fb57600080fd5b5060405162000b4238038062000b4283398181016040528101906200012191906200023a565b80600460003373ffffffffffffffffffffffffffffffffffffffff1673ffffffffffffffffffffffffffffffffffffffff168152602001908152602001600020819055508060038190555050620002fa565b828054620001819062000276565b90600052602060002090601f016020900481019282620001a55760008555620001f1565b82601f10620001c057805160ff1916838001178555620001f1565b82800160010185558215620001f1579182015b82811115620001f0578251825591602001919060010190620001d3565b5b50905062000200919062000204565b5090565b5b808211156200021f57600081600090555060010162000205565b5090565b6000815190506200023481620002e0565b92915050565b600060208284031215620002535762000252620002db565b5b6000620002638482850162000223565b91505092915050565b6000819050919050565b600060028204905060018216806200028f57607f821691505b60208210811415620002a657620002a5620002ac565b5b50919050565b7f4e487b7100000000000000000000000000000000000000000000000000000000600052602260045260246000fd5b600080fd5b620002eb816200026c565b8114620002f757600080fd5b50565b610838806200030a6000396000f3fe608060405234801561001057600080fd5b506004361061007d5760003560e01c80635a3b7e421161005b5780635a3b7e42146100ee57806370a082311461010c57806395d89b411461013c578063a9059cbb1461015a5761007d565b806306fdde0314610082578063095ea7b3146100a057806318160ddd146100d0575b600080fd5b61008a61018a565b60405161009791906105d0565b60405180910390f35b6100ba60048036038101906100b5919061051e565b610218565b6040516100c791906105b5565b60405180910390f35b6100d8610224565b6040516100e591906105f2565b60405180910390f35b6100f661022a565b60405161010391906105d0565b60405180910390f35b610126600480360381019061012191906104f1565b6102b8565b60405161013391906105f2565b60405180910390f35b6101446102d0565b60405161015191906105d0565b60405180910390f35b610174600480360381019061016f919061051e565b61035e565b60405161018191906105b5565b60405180910390f35b600080546101979061072e565b80601f01602080910402602001604051908101604052809291908181526020018280546101c39061072e565b80156102105780601f106101e557610100808354040283529160200191610210565b820191906000526020600020905b8154815290600101906020018083116101f357829003601f168201915b505050505081565b60006001905092915050565b60035481565b600280546102379061072e565b80601f01602080910402602001604051908101604052809291908181526020018280546102639061072e565b80156102b05780601f10610285576101008083540402835291602001916102b0565b820191906000526020600020905b81548152906001019060200180831161029357829003601f168201915b505050505081565b60046020528060005260406000206000915090505481565b600180546102dd9061072e565b80601f01602080910402602001604051908101604052809291908181526020018280546103099061072e565b80156103565780601f1061032b57610100808354040283529160200191610356565b820191906000526020600020905b81548152906001019060200180831161033957829003601f168201915b505050505081565b600081600460003373ffffffffffffffffffffffffffffffffffffffff1673ffffffffffffffffffffffffffffffffffffffff1681526020019081526020016000205410156103ac57600080fd5b81600460003373ffffffffffffffffffffffffffffffffffffffff1673ffffffffffffffffffffffffffffffffffffffff16815260200190815260200160002060008282546103fb919061067f565b9250508190555081600460008573ffffffffffffffffffffffffffffffffffffffff1673ffffffffffffffffffffffffffffffffffffffff16815260200190815260200160002060008282546104519190610629565b925050819055508273ffffffffffffffffffffffffffffffffffffffff163373ffffffffffffffffffffffffffffffffffffffff167fddf252ad1be2c89b69c2b068fc378daa952ba7f163c4a11628f55a4df523b3ef846040516104b591906105f2565b60405180910390a36001905092915050565b6000813590506104d6816107d4565b92915050565b6000813590506104eb816107eb565b92915050565b600060208284031215610507576105066107be565b5b6000610515848285016104c7565b91505092915050565b60008060408385031215610535576105346107be565b5b6000610543858286016104c7565b9250506020610554858286016104dc565b9150509250929050565b610567816106c5565b82525050565b60006105788261060d565b6105828185610618565b93506105928185602086016106fb565b61059b816107c3565b840191505092915050565b6105af816106f1565b82525050565b60006020820190506105ca600083018461055e565b92915050565b600060208201905081810360008301526105ea818461056d565b905092915050565b600060208201905061060760008301846105a6565b92915050565b600081519050919050565b600082825260208201905092915050565b6000610634826106f1565b915061063f836106f1565b9250827fffffffffffffffffffffffffffffffffffffffffffffffffffffffffffffffff0382111561067457610673610760565b5b828201905092915050565b600061068a826106f1565b9150610695836106f1565b9250828210156106a8576106a7610760565b5b828203905092915050565b60006106be826106d1565b9050919050565b60008115159050919050565b600073ffffffffffffffffffffffffffffffffffffffff82169050919050565b6000819050919050565b60005b838110156107195780820151818401526020810190506106fe565b83811115610728576000848401525b50505050565b6000600282049050600182168061074657607f821691505b6020821081141561075a5761075961078f565b5b50919050565b7f4e487b7100000000000000000000000000000000000000000000000000000000600052601160045260246000fd5b7f4e487b7100000000000000000000000000000000000000000000000000000000600052602260045260246000fd5b600080fd5b6000601f19601f8301169050919050565b6107dd816106b3565b81146107e857600080fd5b50565b6107f4816106f1565b81146107ff57600080fd5b5056fea26469706673582212209e03b52bbd7d0c3d8eb281a0a17d8d07d66c3ad0bac10ac4d2787395acbd0b5f64736f6c63430008060033",
  "immutableReferences": {},
  "source": "// SPDX-License-Identifier: MIT\npragma solidity >=0.4.1 <0.9.0;\n\ncontract DappToken {\n\n    string public name = \"Dapp Token\";\n    string public symbol = \"DAPP\";\n    string public standard = \"DApp Token v1.0\";\n    uint256 public totalSupply;\n    \n    event Transfer(\n        address indexed _from,\n        address indexed _to,\n        uint256 _value\n    );\n\n    mapping(address => uint256) public balanceOf;\n    // allowance\n\n    // transfer event\n\n    constructor(uint256 _initialSupply) {\n        // totalSupply = 1000000;\n        balanceOf[msg.sender] = _initialSupply;\n        totalSupply = _initialSupply;\n    }\n\n    // Transfer\n    function transfer(address _to, uint256 _value) public returns (bool success) {\n        // Exception if account doesnt have enough bal.\n        require(balanceOf[msg.sender] >= _value);\n        balanceOf[msg.sender] -= _value;\n        balanceOf[_to] += _value;\n\n        // Transfer Event\n        emit Transfer(msg.sender, _to, _value);\n\n        return true;\n    }\n\n    // Delegated Transfer\n    // approve\n    function approve(address _spender, uint256 _value) public returns (bool success) {\n        return true;\n    }\n\n\n    // transfer from\n}",
  "sourcePath": "/Users/jake/Code/project_ico/contracts/DappToken.sol",
  "compiler": {
    "name": "solc",
    "version": "0.8.6+commit.11564f7e.Emscripten.clang"
  },
  "schemaVersion": "3.4.1",
  "updatedAt": "2021-07-02T01:25:06.205Z",
  "devdoc": {
    "kind": "dev",
    "methods": {},
    "version": 1
  },
  "userdoc": {
    "kind": "user",
    "methods": {},
    "version": 1
  }
}